{
  "contractName": "Election",
  "abi": [
    {
      "inputs": [],
      "payable": false,
      "stateMutability": "nonpayable",
      "type": "constructor"
    },
    {
      "constant": true,
      "inputs": [
        {
          "internalType": "uint256",
          "name": "",
          "type": "uint256"
        }
      ],
      "name": "allCandidates",
      "outputs": [
        {
          "internalType": "uint256",
          "name": "id",
          "type": "uint256"
        },
        {
          "internalType": "string",
          "name": "name",
          "type": "string"
        },
        {
          "internalType": "uint256",
          "name": "votes",
          "type": "uint256"
        }
      ],
      "payable": false,
      "stateMutability": "view",
      "type": "function"
    },
    {
      "constant": true,
      "inputs": [
        {
          "internalType": "uint256",
          "name": "",
          "type": "uint256"
        }
      ],
      "name": "candidates",
      "outputs": [
        {
          "internalType": "uint256",
          "name": "id",
          "type": "uint256"
        },
        {
          "internalType": "string",
          "name": "name",
          "type": "string"
        },
        {
          "internalType": "uint256",
          "name": "votes",
          "type": "uint256"
        }
      ],
      "payable": false,
      "stateMutability": "view",
      "type": "function"
    },
    {
      "constant": true,
      "inputs": [],
      "name": "candidatesAmount",
      "outputs": [
        {
          "internalType": "uint256",
          "name": "",
          "type": "uint256"
        }
      ],
      "payable": false,
      "stateMutability": "view",
      "type": "function"
    },
    {
      "constant": true,
      "inputs": [],
      "name": "pollsClosed",
      "outputs": [
        {
          "internalType": "bool",
          "name": "",
          "type": "bool"
        }
      ],
      "payable": false,
      "stateMutability": "view",
      "type": "function"
    },
    {
      "constant": true,
      "inputs": [
        {
          "internalType": "address",
          "name": "",
          "type": "address"
        }
      ],
      "name": "voters",
      "outputs": [
        {
          "internalType": "bool",
          "name": "",
          "type": "bool"
        }
      ],
      "payable": false,
      "stateMutability": "view",
      "type": "function"
    },
    {
      "constant": false,
      "inputs": [
        {
          "internalType": "uint256",
          "name": "_candidate",
          "type": "uint256"
        }
      ],
      "name": "vote",
      "outputs": [
        {
          "internalType": "bool",
          "name": "",
          "type": "bool"
        }
      ],
      "payable": false,
      "stateMutability": "nonpayable",
      "type": "function"
    },
    {
      "constant": false,
      "inputs": [],
      "name": "closePolls",
      "outputs": [],
      "payable": false,
      "stateMutability": "nonpayable",
      "type": "function"
    }
  ],
  "bytecode": "0x6080604052600080556000600160006101000a81548160ff02191690831515021790555034801561002f57600080fd5b506100386103c3565b604051806060016040528060005481526020016040518060400160405280600881526020017f4a696d20426f726e0000000000000000000000000000000000000000000000008152508152602001600081525090508060026000805481526020019081526020016000206000820151816000015560208201518160010190805190602001906100c89291906103e4565b50604082015181600201559050506004819080600181540180825580915050906001820390600052602060002090600302016000909192909190915060008201518160000155602082015181600101908051906020019061012a9291906103e4565b506040820151816002015550505060008081548092919060010191905055506101516103c3565b604051806060016040528060005481526020016040518060400160405280600a81526020017f476176616e2042757368000000000000000000000000000000000000000000008152508152602001600081525090508060026000805481526020019081526020016000206000820151816000015560208201518160010190805190602001906101e19291906103e4565b5060408201518160020155905050600481908060018154018082558091505090600182039060005260206000209060030201600090919290919091506000820151816000015560208201518160010190805190602001906102439291906103e4565b5060408201518160020155505050600080815480929190600101919050555061026a6103c3565b604051806060016040528060005481526020016040518060400160405280600c81526020017f4c696e636f6c6e204861726e00000000000000000000000000000000000000008152508152602001600081525090508060026000805481526020019081526020016000206000820151816000015560208201518160010190805190602001906102fa9291906103e4565b50604082015181600201559050506004819080600181540180825580915050906001820390600052602060002090600302016000909192909190915060008201518160000155602082015181600101908051906020019061035c9291906103e4565b50604082015181600201555050506000808154809291906001019190505550336001806101000a81548173ffffffffffffffffffffffffffffffffffffffff021916908373ffffffffffffffffffffffffffffffffffffffff160217905550505050610489565b60405180606001604052806000815260200160608152602001600081525090565b828054600181600116156101000203166002900490600052602060002090601f016020900481019282601f1061042557805160ff1916838001178555610453565b82800160010185558215610453579182015b82811115610452578251825591602001919060010190610437565b5b5090506104609190610464565b5090565b61048691905b8082111561048257600081600090555060010161046a565b5090565b90565b6107a8806104986000396000f3fe608060405234801561001057600080fd5b506004361061007d5760003560e01c8063860fdb6a1161005b578063860fdb6a1461019b5780638c90d56b146101bd578063a3ec138d146101c7578063fc60c8b3146102235761007d565b80630121b93f146100825780633477ee2e146100c85780637a6c21fa1461017d575b600080fd5b6100ae6004803603602081101561009857600080fd5b81019080803590602001909291905050506102d8565b604051808215151515815260200191505060405180910390f35b6100f4600480360360208110156100de57600080fd5b81019080803590602001909291905050506104a0565b6040518084815260200180602001838152602001828103825284818151815260200191508051906020019080838360005b83811015610140578082015181840152602081019050610125565b50505050905090810190601f16801561016d5780820380516001836020036101000a031916815260200191505b5094505050505060405180910390f35b610185610562565b6040518082815260200191505060405180910390f35b6101a3610568565b604051808215151515815260200191505060405180910390f35b6101c561057b565b005b610209600480360360208110156101dd57600080fd5b81019080803573ffffffffffffffffffffffffffffffffffffffff16906020019092919050505061063c565b604051808215151515815260200191505060405180910390f35b61024f6004803603602081101561023957600080fd5b810190808035906020019092919050505061065c565b6040518084815260200180602001838152602001828103825284818151815260200191508051906020019080838360005b8381101561029b578082015181840152602081019050610280565b50505050905090810190601f1680156102c85780820380516001836020036101000a031916815260200191505b5094505050505060405180910390f35b6000801515600360003373ffffffffffffffffffffffffffffffffffffffff1673ffffffffffffffffffffffffffffffffffffffff16815260200190815260200160002060009054906101000a900460ff1615151461039f576040517f08c379a00000000000000000000000000000000000000000000000000000000081526004018080602001828103825260168152602001807f596f752063616e206f6e6c7920766f7465206f6e63650000000000000000000081525060200191505060405180910390fd5b60001515600160009054906101000a900460ff1615151461040b576040517f08c379a00000000000000000000000000000000000000000000000000000000081526004018080602001828103825260238152602001806107516023913960400191505060405180910390fd5b600160026000848152602001908152602001600020600201540160026000848152602001908152602001600020600201819055506001600360003373ffffffffffffffffffffffffffffffffffffffff1673ffffffffffffffffffffffffffffffffffffffff16815260200190815260200160002060006101000a81548160ff02191690831515021790555060019050919050565b6002602052806000526040600020600091509050806000015490806001018054600181600116156101000203166002900480601f0160208091040260200160405190810160405280929190818152602001828054600181600116156101000203166002900480156105525780601f1061052757610100808354040283529160200191610552565b820191906000526020600020905b81548152906001019060200180831161053557829003601f168201915b5050505050908060020154905083565b60005481565b600160009054906101000a900460ff1681565b3373ffffffffffffffffffffffffffffffffffffffff166001809054906101000a900473ffffffffffffffffffffffffffffffffffffffff1673ffffffffffffffffffffffffffffffffffffffff1614610620576040517f08c379a000000000000000000000000000000000000000000000000000000000815260040180806020018281038252602581526020018061072c6025913960400191505060405180910390fd5b60018060006101000a81548160ff021916908315150217905550565b60036020528060005260406000206000915054906101000a900460ff1681565b6004818154811061066957fe5b9060005260206000209060030201600091509050806000015490806001018054600181600116156101000203166002900480601f01602080910402602001604051908101604052809291908181526020018280546001816001161561010002031660029004801561071b5780601f106106f05761010080835404028352916020019161071b565b820191906000526020600020905b8154815290600101906020018083116106fe57829003601f168201915b505050505090806002015490508356fe596f75206d75737420626520746865206f776e6572206f662074686520636f6e747261637454686520706f6c6c732061726520636c6f73656420796f752063616e277420766f7465a265627a7a72315820829d196b9c040f452cfd5730c051f39b46e49748c826424c07bd094e5bb0e80e64736f6c63430005100032",
  "source": "pragma solidity >=0.5.0 <0.7.0;\r\n\r\ncontract Election{\r\n\r\n    uint public candidatesAmount = 0; // counts the amount of candidates\r\n    bool public pollsClosed = false; // tells whether the polls are closed or not\r\n    address owner; // saves the owner of the contract\r\n\r\n    struct Candidate{\r\n        uint id;\r\n        string name;\r\n        uint votes;\r\n    } // is the struct for each candidate in the election\r\n\r\n    mapping(uint => Candidate) public candidates; \r\n    mapping(address => bool) public voters;\r\n    Candidate[] public allCandidates; \r\n\r\n    modifier canVote(){\r\n        require(voters[msg.sender] == false, \"You can only vote once\");\r\n        require(pollsClosed == false, \"The polls are closed you can't vote\");\r\n        _;\r\n    } // checks if the user has voted already and if the polls are closed\r\n\r\n    modifier onlyOwner(){\r\n        require(owner == msg.sender, \"You must be the owner of the contract\");\r\n        _;\r\n    }// checks if the message sender is the owner\r\n\r\n    constructor() public{\r\n        Candidate memory candidate1 = Candidate(candidatesAmount, \"Jim Born\", 0);\r\n        candidates[candidatesAmount] = candidate1;\r\n        allCandidates.push(candidate1);\r\n        candidatesAmount++;\r\n\r\n        Candidate memory candidate2 = Candidate(candidatesAmount, \"Gavan Bush\", 0);\r\n        candidates[candidatesAmount] = candidate2;\r\n        allCandidates.push(candidate2);\r\n        candidatesAmount++;\r\n\r\n        Candidate memory candidate3 = Candidate(candidatesAmount, \"Lincoln Harn\", 0);\r\n        candidates[candidatesAmount] = candidate3;\r\n        allCandidates.push(candidate3);\r\n        candidatesAmount++;\r\n        \r\n        owner = msg.sender;\r\n    }\r\n\r\n    function vote(uint _candidate) canVote public returns(bool){\r\n        candidates[_candidate].votes = candidates[_candidate].votes + 1;\r\n        voters[msg.sender] = true;\r\n        return(true);\r\n    }\r\n\r\n    function closePolls() onlyOwner public{\r\n        pollsClosed = true;\r\n    }\r\n\r\n    // function getAllCandidates() public view returns(Candidate[] memory){\r\n    //     return(allCandidates);\r\n    // }\r\n\r\n\r\n}",
  "sourcePath": "C:\\my_projects\\reactNativeWeb3Projects\\Election\\contracts\\Election.sol",
  "compiler": {
    "name": "solc",
    "version": "0.5.16+commit.9c3226ce.Emscripten.clang"
  },
  "schemaVersion": "3.0.23",
  "updatedAt": "2020-10-14T22:47:29.876Z",
  "devdoc": {
    "methods": {}
  },
  "userdoc": {
    "methods": {}
  }
}